S00B0000554152542E68657845
S11300000030002009120000B1070000BD07000005
S1130010BD070000BD070000BD070000BD070000CC
S1130020BD070000BD070000BD070000BD070000BC
S1130030BD070000BD070000BD070000BD070000AC
S1130040BD070000BD070000BD070000BD0700009C
S1130050BD070000BD070000BD070000BD0700008C
S1130060BD070000BD070000BD070000BD0700007C
S113007029100000BD070000BD0700002D0C000082
S1130080BD070000BD070000BD070000BD0700005C
S1130090BD070000BD070000BD070000BD0700004C
S11300A0BD070000BD070000BD070000BD0700003C
S11300B0BD070000BD070000BD070000BD0700002C
S1130400FFFFFFFFFFFFFFFFFFFFFFFF7EFFFFFF79
S113041002B4714649084900095649008E4402BC99
S11304207047C04602B4714649084900095C490056
S11304308E4402BC7047C046002934D001230022F8
S113044010B488422CD301242407A14204D281424F
S113045002D209011B01F8E7E400A14204D281425F
S113046002D249005B00F8E7884201D3401A1A43DC
S11304704C08A04202D3001B5C0822438C08A04213
S113048002D3001B9C082243CC08A04202D3001BC9
S1130490DC082243002803D01B0901D00909E3E743
S11304A0101C10BC7047002801D00020C04307B4C2
S11304B0024802A14018029003BDC0461900000082
S11304C00029F0D003B5FFF7B9FF0EBC4243891AE7
S11304D01847C0467047C04690B589B000AFF86071
S11304E0B960BB1D1A80FB68BB613B1C1F33002233
S11304F01A70BB68013BBB60BB1D1B88002B38D145
S1130500BB68002B35D03B1C1F331B78BA69D3184A
S113051030221A703B1C1F333A1C1F3212780132EE
S11305201A70BB68013BBB6023E03B1C1F331B7884
S1130530BA69D418BB1D1B88181C0A21FFF7C0FF19
S11305400B1C9BB2DBB23033DBB223703B1C1F337A
S11305503A1C1F32127801321A70BB68013BBB602F
S1130560BC1DBB1D1B88181C0A21FFF765FF031C5B
S11305702380BB1D1B88002B02D0BB68002BD4D169
S11305803B1C1E3300221A702EE03B1C1E331B78CA
S1130590BA69D2183B1C173312781A703B1C1E33ED
S11305A01B78BA69D3183A1C1F3211783A1C1E32D0
S11305B012788A1A013AB9698A1812781A703B1C9F
S11305C01F331A783B1C1E331B78D31A013BBA69BC
S11305D0D3183A1C173212781A703B1C1E333A1C7B
S11305E01E32127801321A703B1C1F331B785B08D1
S11305F0DBB23A1C1E3212789A42C6D33B1C1F331C
S11306001B78BA69D31800221A70BD4609B090BD90
S113061080B584B000AF021CFB1D1A703B1C0F3365
S113062000221A70224B1B78DBB20133DBB2204A62
S1130630191C1170012B04D11E4BEFF3108072B6FC
S113064018701D4B1B78402B04D13B1C0F330B221D
S11306501A7018E0194B1B78194AF91D0978D154FE
S1130660154B1B780133DAB2134B1A70134B1B78FA
S11306700133DAB2114B1A70104B1B78402B02D1A4
S11306800E4B00221A700A4B1B78DBB2013BDBB223
S1130690074A191C1170002B03D1064B187880F3FC
S11306A010883B1C0F331B78181CBD4604B080BD5A
S11306B04CF0FF1FACF0FF1F42F0FF1F40F0FF1F84
S11306C000F0FF1F80B584B000AF78603B1C0F338F
S11306D000221A70224B1B78DBB20133DBB2204AB2
S11306E0191C1170012B04D11E4BEFF3108072B64C
S11306F018701D4B1B78002B04D13B1C0F330A22AE
S11307001A7018E0194B1B78194AD25C7B681A706E
S1130710154B1B78013BDAB2134B1A70134B1B7841
S11307200133DAB2114B1A70104B1B78402B02D1F3
S11307300E4B00221A700A4B1B78DBB2013BDBB272
S1130740074A191C1170002B03D1064B187880F34B
S113075010883B1C0F331B78181CBD4604B080BDA9
S11307604CF0FF1FACF0FF1F42F0FF1F41F0FF1FD2
S113077000F0FF1F80B500AF024B1B78181CBD466C
S113078080BDC04642F0FF1F80B500AF054B00227C
S11307901A70054B00221A70044B00221A70BD46D1
S11307A080BDC04640F0FF1F41F0FF1F42F0FF1F15
S11307B080B500AF00F078FDBD4680BD80B500AFC8
S11307C0FFBEBD4680BDC04680B500AF364A37493E
S11307D0374BD150374A88235B010021D150354A29
S11307E0354BC0218902D150324A3249334BCB5860
S11307F0C021C9001943314BD150314B9B78DBB236
S11308001A1C0823134007D02D4B2D4A9278D2B2DC
S113081008210A43D2B29A70264A274B0021D150AC
S1130820244A2449274BC958274B1940254BD150FA
S1130830204B204A1268C02109030A431A601D4A4A
S11308401C49204BC958214B0B40802149041943B2
S11308501C4BD1501E4B06221A701D4B00225A709D
S11308601B4B1B4AD278D1B21F220A40D2B2DA7093
S1130870184B80221A70164B00221A71144B002256
S11308805A71C046124B9B79DBB21A1C10231340D9
S1130890F8D0C0460E4B9B79DBB21A1C0C231340D4
S11308A0F8D1BD4680BDC04600E000E00000000075
S11308B0080D0000007004404410000038100000CF
S11308C000D0074004100000FFFFFEFFFFFFFFFC05
S11308D0004006400050064080B500AF2B4B2B4A29
S11308E011692B4A0A40E021C9000A431A61294BC5
S11308F0284A5279D2B21F218A43D2B25A71254B67
S1130900244A1279D2B207218A43D2B21A71224BF5
S1130910214A1278D2B2D2B273218A43D2B2502180
S11309200A43D2B2D2B21A701B4B1B4A5278D2B2CB
S1130930D2B263218A43D2B240210A43D2B2D2B2A4
S11309405A70154B144A9278D2B219218A43D2B202
S11309509A70124B00221A700C4B0C4A116D0C4AFF
S11309600A40E021C9000A431A650D4A0C49C12313
S11309709B00C9580B4B1940C1239B00D150FFF772
S113098003FF00F019FC62B6BD4680BD0090044030
S1130990FFF8FFFE00F0074000D0074000E00740EA
S11309A000E100E0FFFF00FF80B584B000AF786095
S11309B0234BFB60FB687A685A60224BFA681A6022
S11309C0FB6800221A70FB6800229A701E4A1E49B6
S11309D01E4BCB588021090519431C4BD1501C4A8E
S11309E01B49C3239B00CB581B021B0A8021090609
S11309F01943C3239B00D150154B154A126880211B
S1130A0009020A431A60134B124A1168124A0A4037
S1130A101A60124B60229A60104B104AD2680F2160
S1130A208A43DA600D4B00221A620C4B40225A6250
S1130A300B4BFA685A60FB68181CBD4604B080BDB5
S1130A4050F0FF1F58F0FF1F007004403C100000DE
S1130A5000E100E000A00440FFF8FFFE00B0034006
S1130A6044F0FF1F80B582B000AF78600D4B1A6A66
S1130A708023134001D0082310E00A4B094A526A2C
S1130A8008218A435A62074B064A126A40218A4364
S1130A901A62044B7A6852781A600023181CBD4607
S1130AA002B080BD00B0034080B586B000AFF860EE
S1130AB0B960FB1D1A70FB687B61FB1D1B78012B61
S1130AC003D8FB1D1B78002B01D196231AE00F4B92
S1130AD01A6A8023134001D0082313E07B69FA1DAE
S1130AE012781A70BB681B78002B01D0822309E0AE
S1130AF0BB681B78064AD35C40221343DAB27B6995
S1130B005A700023181CBD4606B080BD00B00340D7
S1130B10E024000080B584B000AF786039603B68A1
S1130B20BB603B1C0F3300221A7014E03B1C0F33D4
S1130B301B78BA68D3180E4A391C0F31097804316E
S1130B4089008A58D2B21A703B1C0F333A1C0F32F8
S1130B50127801321A707B681B783A1C0F321278B3
S1130B609A42E3D30023181CBD4604B080BDC0469E
S1130B7000B0034080B584B000AF78602A4B5A6A55
S1130B804023134001D01B234AE0274BDB6CFB605E
S1130B90254B9B6CFA68D318FB60234B5B6CFA689B
S1130BA0D318FB60204B1B6CFA68D318FB601E4BF8
S1130BB0DB6BFA68D318FB601B4B9B6BFA68D3188A
S1130BC0FB60FB685B08802212021343FB60164B38
S1130BD0FA68DA62144BDB6EFB60134B9B6EFA68A7
S1130BE0D318FB60104B5B6EFA68D318FB600E4B96
S1130BF01B6EFA68D318FB600B4BDB6DFA68D318D5
S1130C00FB60094B9B6DFA68D318FB60FB685B08BB
S1130C10802212021343FB60034BFA681A63002319
S1130C20181CBD4604B080BD00B0034080B582B03E
S1130C3000AF084B1B687B607B6801229A707B685D
S1130C405B68181C00F08AFA034B1B69BD4602B0AE
S1130C5080BDC04658F0FF1F00B0034080B584B08B
S1130C6000AF78605E4BFB60FB6800225A80FB6833
S1130C7000221A81FB6800225A60FB6800225A8114
S1130C80FB6800221A82FB680022DA60FB687A683B
S1130C905A61544BFA681A60534A5349534BCB5820
S1130CA08021C9001943514BD150514B504A5168CE
S1130CB0504A0A40802189000A435A604C4B4C4AEE
S1130CC091684C4A0A40802189000A439A604A4A42
S1130CD04949C3239B00CB58FF218B4380211943EF
S1130CE0C3239B00D150444B434A126880214901DD
S1130CF00A431A60414B414AD278D2B208218A434E
S1130D00D2B2DA703D4B3D4AD278D2B204218A4342
S1130D10D2B2DA70FB6800221A80384B00229A7033
S1130D20364B00229A71354B00229A72334B0022C3
S1130D305A712D4A2C49324BC958324B0B408021F1
S1130D40C90419432E4BD1502C4B2C4A1278D2B2E1
S1130D501F218A43D2B21A70284B89225A70274B1A
S1130D60264A927AD2B2D2B21F218A43D2B2032146
S1130D700A43D2B2D2B29A72204B204AD27AD2B269
S1130D80D2B202210A43D2B2D2B2DA721B4B1B4A4C
S1130D90D278D2B2D2B208210A43D2B2D2B2DA7035
S1130DA0164B164AD278D2B2D2B204210A43D2B236
S1130DB0D2B2DA70114B114AD278D2B220210A434E
S1130DC0D2B2DA700D4B0D4A9279D2B29A710E4BAF
S1130DD0FA681A60FB68181CBD4604B080BDC046A2
S1130DE05CF0FF1F74F0FF1F00700440341000001B
S1130DF000900440FFF8FFFE00E100E000A0064080
S1130E0004100000FFFFFFF344F0FF1F80B586B01D
S1130E1000AFF860B960BB1D1A80FB687B61BB1D25
S1130E201B88002B01D184232DE07B691B89002BB7
S1130E3001D0082327E0164B1B78DBB20133DBB269
S1130E40134A191C1170012B04D1124BEFF31080BB
S1130E5072B618707B69BA685A607B69BA1D1288C9
S1130E601A817B6900225A80094B1B78DBB2013B53
S1130E70DBB2074A191C1170002B03D1054B1878FB
S1130E8080F310880023181CBD4606B080BDC04600
S1130E904CF0FF1FACF0FF1F80B586B000AFF860C8
S1130EA0B960BB1D1A80FB687B61BB1D1B88002BCE
S1130EB001D1842342E07B691B8A002B01D00823E3
S1130EC03CE0204B1B78DBB20133DBB21D4A191C1A
S1130ED01170012B04D11C4BEFF3108072B6187003
S1130EE07B69BA68DA607B69BA1D12881A827B69E9
S1130EF000225A817B691B88012213439AB27B69C1
S1130F001A80124B114AD278D2B2802149420A4344
S1130F10D2B2DA700D4B0D4A9279D2B29A71094B62
S1130F201B78DBB2013BDBB2064A191C1170002BA3
S1130F3003D1054B187880F310880023181CBD4694
S1130F4006B080BD4CF0FF1FACF0FF1F00A00640B0
S1130F5090B583B000AF7860124BDB79DBB21C1C18
S1130F607B681B89002B1AD07B685B68E2B21A701D
S1130F705A1C7B685A607B685B8801339AB27B6831
S1130F805A807B685A887B681B899A4207D17B68A0
S1130F9000221A817B685B69181C00F089F9BD4640
S1130FA003B090BD00A0064080B582B000AF786069
S1130FB07B685A897B681B8A9A421CD2194A7B68CF
S1130FC0DB681978D1715A1C7B68DA607B685B89AD
S1130FD001339AB27B685A817B685A897B681B8A81
S1130FE09A421CD17B6800221A827B685B69181CB8
S1130FF000F076F913E00B4B0A4AD278D1B27F2283
S11310000A40D2B2DA70074B064A9279D2B29A7188
S11310107B681B88012293439AB27B681A80BD4681
S113102002B080BD00A0064090B583B000AF174B5E
S11310301B687B60164B1B79DBB21C1C221C0F2324
S1131040134009D0124B0F221A71114BDB79202364
S1131050221C9A43131C9CB2221C2023134003D04D
S11310607B68181CFFF774FF7B681B881A1C01231C
S1131070134007D0221C8023134003D07B68181C24
S1131080FFF792FFBD4603B090BDC04674F0FF1F4A
S113109000A0064080B500AF0C4B1B78DBB2002BE0
S11310A012D00B4B00221A700A4B00221A700A4B02
S11310B01A68084B101C191C0122FFF7F5FC064B9B
S11310C01B68181CFFF7CEFCBD4680BD78F0FF1FDF
S11310D080F0FF1F7CF0FF1FB4F0FF1F80B582B0CB
S11310E000AF021CFB1D1A700D4B1B78DBB2002BEA
S11310F001D008230FE00A4B01221A70FFF7CAFF40
S1131100FB1D1B78002B05D0C046054B1B78DBB2BA
S1131110012BFAD00023181CBD4602B080BDC04686
S113112078F0FF1F80B582B000AF7860094B1B7860
S1131130DBB2002B01D1092307E0074B1B78DBB29C
S11311401B029AB27B681A800023181CBD4602B0A9
S113115080BDC04680F0FF1FB0F0FF1F80B582B095
S113116000AF7860104B1B78DBB2042B0AD10F4B15
S11311701B68181CFFF7FEFC0B4B00221A7000F0D2
S1131180BFF80EE0094B1A68094B101C191CFFF735
S1131190C1FC084B01221A7000F0AEF8024B002289
S11311A01A70BD4602B080BD78F0FF1FB4F0FF1F77
S11311B0B0F0FF1F80F0FF1F80B500AF064B002288
S11311C01A70064B00221A700020FFF7EDFB021C78
S11311D0034B1A60BD4680BD80F0FF1F78F0FF1FEF
S11311E0B4F0FF1F80B500AF054A064BD31A054A79
S11311F0101C00211A1C00F027F9BD4680BDC04612
S1131200E0F0FF1F00F0FF1F01F058F9FFF7DCFAD0
S1131210FFF7E8FF01F02AF901F0C6F801F05CF9E4
S1131220044B0020191C00F00DF8031C181C00F0DE
S1131230EFF8C04684F0FF1F80B582B000AF78603D
S1131240FEE7C04680B500AFFFF746FB0120FFF77D
S113125045FF124B181CFFF765FF104B1B88104A03
S1131260101C20211A1CFFF737F90E4B00221A60BC
S11312700BE00C4B1B680A4AD35C181CFFF7C8F937
S1131280084B1B685A1C074B1A60064B1B68044A20
S1131290D35C002BEDD100F097F8D7E7DCF0FF1F0B
S11312A0BCF0FF1FB8F0FF1F80B500AFBD4680BD86
S11312B080B584B000AF78607B68FB60FB689B6896
S11312C0FA685279101C9847FB681A68FB68053362
S11312D0101C191C0122FFF799FDBD4604B080BD06
S11312E080B584B000AF78607B68FB60FB68012246
S11312F01A71BD4604B080BD80B500AFBD4680BD47
S113130080B500AFBD4680BD80B582B000AF021C81
S11313103960FB1D1A703B6800221A71C0463B6895
S11313201A68FB1D101C191C0122FFF7B5FD031CD4
S1131330002BF4D1C0463B681B79DBB2002BFAD0FA
S1131340BD4602B080BDC04680B582B000AF7860B3
S1131350396009E07B681A787B6801337B603B68FD
S1131360101C191CFFF7D0FF7B681B78002BF1D1F0
S1131370BD4602B080BDC04680B500AF0F4B181CFF
S1131380FFF76CFC021C0D4B1A600C4B00221A7107
S11313900A4B00225A71094B094A9A60FFF7F4F983
S11313A0C046064B1A68074B101C191C0122FFF794
S11313B02DFD031C002BF4D1BD4680BD88F0FF1F1A
S11313C0110600008DF0FF1F80B582B000AFFFF75B
S11313D0D3FF0AE0FB1D181CFFF774F9FB1D1A78F4
S11313E0094B101C191CFFF78FFFFFF7C3F9031CEF
S11313F0002BEFD1054A044B101C191CFFF7A4FF66
S1131400BD4602B080BDC04688F0FF1FDC2400004A
S113141038B5051C01F044F800F0EAFF084C2368D5
S1131420002B02D0984700202060064C2168002938
S113143002D0884700222260281CFFF7FDFE38BD39
S113144094F0FF1F98F0FF1F10B5041C00F04EFF2E
S1131450201C10BD00B5C9B20378421C002B03D078
S11314608B4205D0101CF7E74B42594149420840D2
S113147000BD0000F0B589B001901F1C0EAB0391B4
S1131480079202901A78081C01990FAC01380026C3
S1131490049225780670B14217D1119BB34214D13E
S11314A0049B002B01D06F2D2FD0642D02D0692D09
S11314B000D0A8E0022F02D1039802389FE0012F48
S11314C000D0A0E00398023894E0692D0ED004D82F
S11314D0582D16D0642D1CD108E0752D04D0782D1C
S11314E00FD06F2D15D110E0002712E0019A002AC9
S11314F00FDA80242606B2420DD0514201910291A6
S113150009E000273E1C102407E000273E1C0824A5
S113151003E0002600E001260A2400900020069043
S11315200298211CFEF7CCFF02980591211CFEF7BE
S113153083FF059A0290092A01D8303205E0059A02
S11315403732782D01D1059A57320098069B0299BB
S11315500138D2B2009002700133002901D0069301
S1131560DEE7011C082C0BD10498002808D0302A8F
S113157006D00B1C013B302200931A70069B0233E9
S1131580079802280FD1002E01D1002F02D0109904
S113159001391091109A1192102C04D1049800284A
S11315A001D0023A119203990098119A091A8918E4
S11315B0164A914226DC0099CA181199121A8A42D5
S11315C003DA013830220270F5E7102C0AD1049CAA
S11315D0002C07D0019B002B04D0421E302102387E
S11315E015700170002E02D001382D2108E0012F62
S11315F002D101382B2103E0022F04D1013820212C
S1131600017000E0002009B0F0BDC046FD010000FB
S1131610F0B5B64C1E1CA5446B460A900B913E33A4
S113162020210020197008920590089A1578002D41
S113163000D1F9E108982521FFF70CFF0C90002850
S113164011D1089800F0A7FE0599021C081805900E
S1131650002A00D1E8E10B9808990A9EB0470028B7
S113166000D0E1E1CEE00C9F089C05993A1B8B1851
S11316700593002A0CD10C980C9A437801321D1E54
S1131680252D0CD000270121BC460D97069119E0A9
S11316900B9808990A9DA8470028ECD1B2E00C9A4F
S11316A00021023201240892079106943DE02B2B7D
S11316B00BDC202B10D0232B00D0BAE001239C4656
S11316C0013213782B2BF2D1ABE12D2B00D1A5E104
S11316D0302B00D0ADE004E00D9D012DF0D00220B0
S11316E0A0E1069C002CEBD002200690E8E73768C6
S11316F00436FB43D80F937802321C1C683C00214B
S1131700042C00D8C1E0DDB26E2B00D0C7E001325A
S113171008926E2D00D149E100D900E1632D00D17A
S113172059E107D8252D00D0F3E010AC25700996B7
S1131730012619E0642D00D0EEE0321D09923068D4
S1131740032900D0F6E007996646009601950291B8
S1131750039790A9069A0D9BFFF78CFE041E00D1F7
S11317603FE1634F6F443E1A069800283CD0202383
S1131770022800D130236F463E373B7022782B2A53
S113178004D02D2A02D0371C202A0BD1371C302B31
S113179008D10B98211C01220A9B9847002831D0BC
S11317A00134771E069902290ED1612D01D0412DF5
S11317B00AD1012F26DD0B98211C02220A9DA8477D
S11317C000281FD0023F0234351C079EB54209DAB7
S11317D069460B983E3101220A9B9847002811D094
S11317E00135F2E73E1C00E0351C002E03D10698BB
S11317F0002819D115E0211C0B98321C0A9CA04723
S11318000028F4D10122554205950DE169463F3186
S113181020240B9801220A9F0C70B8470028F1D0AD
S11318200135079FBD42F1DB059A53190593099EC3
S1131830FBE6171C2A2B00D0E1E0341D366807961E
S1131840002E03DA73420025079306957B78013254
S1131850261C284F0798B84200DDC2E02E2B11D178
S113186053782A2B00D142E7013200271C1C303C5C
S1131870092C05D80A214F4301323F191378F5E7A3
S113188001203AE70027381C37E71B4D295D1B4D23
S11318902C57002C00D136E75378013233E76E2BF6
S11318A00ADC632B2CD002DC582B30D115E0642BDE
S11318B013D0692B2BD110E0732B23D009DC6F2BB1
S11318C00BD0702B23D101237825082703219C46B4
S11318D01DE7752B01D0782B19D1002815D0069C53
S11318E0022C00D013E70123069310E7BCFDFFFF91
S11318F03F020000FD010000EA240000E52400008E
S1131900002804D1002902D101E70127FFE6FF25C1
S1131910FDE6582D65D116E0692D62D10DE7732DD2
S113192023D002D86F2D5CD10DE0752D0BD0782D0E
S113193057D108E0022901D100B204E7012900D0FF
S113194001E740B2FFE6341D09943068032906D04C
S1131950022901D180B202E0012900D1C0B2079E60
S11319606246009201950296F2E63468311D0991AF
S1131970002C00D12F4C6346002B07D0267801346D
S1131980002800D1F0E6BE4237DCEDE6002808D09E
S1131990201C61463A1C00F0E8FC00282DD0061BF0
S11319A0E2E6201C00F0F7FC061CDDE6351D099577
S11319B03468022907D003290AD0002900D036E769
S11319C00598206033E76F461421CB5B23802EE714
S11319D0059A22602BE73368301D10AC0990237000
S11319E0A6E60C9800F0D7FC059E021C3518059558
S11319F0002819D00B980C992FE63E1CB4E600245D
S1131A000794191C3039092900D922E7079D0A23B4
S1131A106B430132581807901378F2E700270697B2
S1131A204EE601200D904BE605989124A400A544B0
S1131A30F0BDC046E4240000F0B50027A9B005902D
S1131A4006910F9309920D970B9708970A970C9795
S1131A500497099D2C78002C00D103E3201C00F08E
S1131A6047FB002822D0099A01321078099200F02D
S1131A703FFB0028F7D1002F00D0F1E200210698A7
S1131A800A1C059CA047061C00F032FB002803D06A
S1131A90049B01330493F1E7701C04D12E980028B1
S1131AA000D1DFE201270698311CABE2252C1BD0C4
S1131AB0002F19D1391C06983A1C059EB047C1B2B3
S1131AC0A1420AD006980122B0472E9F002F00D1D0
S1131AD0C8E2099D01350995C2E2049B09990133C5
S1131AE0013104930991B4E71EAC201C0021282283
S1131AF0FFF7AAFC0998A54E45786660281E25289C
S1131B000CD1211C14A82822E57000F03BFC099C90
S1131B1000200234099407900E90D7E02A2D02D0B9
S1131B20099C013405E0012309992370099C8878F4
S1131B300234021C303A092A1FD800260A256E43B3
S1131B403038013436182078031C303B092BF5D982
S1131B501EAD6E60002E0ED101235942E97014A807
S1131B60291C2822013400F00DFC2B780994FF2550
S1131B7007960E969DE001266E701EA9682804D073
S1131B806C280CD10320887007E0637802228A70E5
S1131B90682B02D101258D706419607801341EAB65
S1131BA0D8705838202871D8FEF73CFC7270702B1E
S1131BB07070707070707015727070707072707078
S1131BC070707272117070197072707072000326E6
S1131BD09E7078215BE09A78002A59D056E0997873
S1131BE0002901D0FF20D87000231EAAD518FF2693
S1131BF001332E72202BF8D1C121FE2051721073B3
S1131C0046E09D78002D01D0FF26DE7063785E2BC0
S1131C1002D00134002102E0A378012102345D2BBB
S1131C2007D11EAB2020D8746378013401E0E37837
S1131C300334002B00D139E25D2B00D139E2DDB24F
S1131C40EA081EAE0720B218184001258540107A14
S1131C502E1C6578064316722D2D14D1A278002A05
S1131C6011D05D2A0FD001339342E0DCDEB2F008DC
S1131C701EAD281807251D400126AE40351C067AE6
S1131C8035430572EFE701342B1CD2E7FF21D970ED
S1131C901EAE311C282214A800F074FB6A467A3266
S1131CA07178107833780E910790F578013476685E
S1131CB00994002B06D1252D08D00F9A14680432FC
S1131CC00F9200E000246E2D01D1ADE10024002F1D
S1131CD001D001270AE00698391C0222059B984787
S1131CE0002803D02E9F002FF3D1BBE1692D25D00E
S1131CF012D85B2D00D115E106D8252D00D1D3E0F3
S1131D00582D00D0AEE13EE0632D00D17CE0642D7F
S1131D1000D0A7E10A2012E0732D00D1E6E007D835
S1131D206E2D00D180E16F2D00D09BE1082030E0C2
S1131D30752D2DD0782D00D094E124E00020002FC3
S1131D4048D112A913AA11AD01910292311C009538
S1131D50059A069B00F0E3F9119E002E05D12E98FA
S1131D60002828D101240B947CE1049B129D9E1928
S1131D700496002D05D080210A06904201D04342EA
S1131D802AE0031C28E0102003E0C046FFFFFF7F89
S1131D900A20002F1ED111AB13A912AD009302919A
S1131DA0069B311C0195059A00F0B9F9119E031C9C
S1131DB0002E03D1D3E70127331C0DE0049A129DB2
S1131DC090190490002D07D080210E06B34203D051
S1131DD05B4201E001270023002C11D0079E032E53
S1131DE009D8301CFEF71EFB06020406237002E02D
S1131DF0238000E023600C9D794279416A180C929B
S1131E000A9801300A906EE00E98002800D101264D
S1131E10002C33D000211191A6198F4200D01FE16C
S1131E20B44219D02E9A002A04D01198002811DA4D
S1131E3001230D93002106980A1C059DA8470890CC
S1131E40013009D008AB1D78257011990134013196
S1131E501191E5E700240D94119E2E9A002E00D1D5
S1131E60A0E0002A03D00D99002900D1F8E0049ADB
S1131E700C9C9019013404900C94D1E01194013E0F
S1131E80701C0CD0002106980A1C059B9847013E43
S1131E900890013003D0119D01351195F0E7119E92
S1131EA0002E00D0BCE0DDE0002F00D0D5E0002102
S1131EB006980A1C059EB047051C00F019F9002875
S1131EC003D0049C01340494F1E7252D08D00122A9
S1131ED00698291CB0472E9A002A00D142E7BCE09C
S1131EE004990131049101240B94B2E501230B936D
S1131EF0002F17D10698391C3A1C059DA847051CCC
S1131F0000F0F6F8002806D0049B00210133049366
S1131F1006980A1CF1E701220698291C059B98479C
S1131F2001220B92002C49D0002111918F4200D044
S1131F3096E0013E351C711C24D02E9A002A04D050
S1131F40119B002B1CDC01200D90002106980A1C1B
S1131F50059B98470890013014D008A90B7814A861
S1131F60DA088218089807210140127A0120884073
S1131F70104207D02370119D013401351195D8E723
S1131F8000260D96119B08AE3178002B05D02E98B3
S1131F9000280AD00D9A002A07D101220698059F2D
S1131FA0B8472E9A002A5DD05AE00020049E207083
S1131FB00C9CF318013404930C942BE01194013E0F
S1131FC0351C711C19D0002106980A1C059CA047D9
S1131FD00890013011D008A8017814AACB080898F9
S1131FE0D418072303400121247A9940013E214259
S1131FF003D0119D01351195E2E7119E002E05D104
S1132000069808990122059B984722E5049B0899A4
S113201098190490002D03DB06980122059DA8471A
S11320200A9901310A9114E5002C00D111E5079AAF
S1132030032A00D90DE5101CFEF7F4F9070A02077C
S11320406D4610214A5B228003E50498206000E578
S113205068461026335C2370FBE401270B97F8E4F1
S11320600127F6E4002106980222059DA8470A9953
S1132070002805D0002928D1012670420C9024E0C4
S1132080002922D10B9A002A1FD00A9906980A1C0B
S1132090059FB8470A99041C02220698B8470028ED
S11320A0EAD10698211C0122B8470EE0FF211EAB9D
S11320B0EDE5002900D1EBE520AD2A7828A8D64328
S11320C02E7001358542F8D1E2E50C9829B0F0BDB7
S11320D08022031C00B5002051008B4204D8034821
S11320E00122C3185878104000BDC046EF240000F8
S11320F08022031C00B5002051008B4204D8034801
S11321001022C3185878104000BDC046EF240000C8
S1132110031C613B00B5192B00D8203800BDF0B575
S113212087B0059101930D990E9B009200220A60DD
S1132130071C1A60904216DB012814D0242812DCF4
S11321400598904207DD009C0198111CA0470126C8
S1132150041C351C02E0141C161C402500220392AA
S1132160974209D002E0141C161C40250121484264
S1132170391CFEF761F90390002302930493059838
S1132180864200DD9EE0621C00D19BE06022154285
S113219000D097E0681E0F28F1D8FEF739F9082E11
S11321A0F03FF0F0F052F0F0F0F0F0F0F052201CBC
S11321B0FFF79EFF021E09D00021009C01980A1C13
S11321C0A047041C049801300490D8E72B2C07D1B5
S11321D0009D0198111CA8470136041C0225CEE776
S11321E002252D2CCBD1111C0198009B98470D99E9
S11321F001220136041C0A60C1E7002F02D0082521
S1132200102FBCD10825302CB9D10021009C019895
S11322100A1CA0470136041C0425B0E7582C01D041
S1132220782C09D1002101980A1C009B984701369B
S1132230041C08251027A2E71025002F9FD108278A
S11322409DE7002F00D10A270398002805D1012219
S11322505042391CFEF7F0F80390201C303809284E
S113226002D8B84211DB0BE0201CFFF731FF002835
S113227006D0201CFFF74CFF011C3639B94203DDA0
S1132280102D1DD120257AE73738029D039C0123A8
S1132290A54201D80E9B1B68029AC5B27A43D1436A
S11322A08D4200D901230E9C8018002123600290E6
S11322B0009D01980A1CA8470136041C10255EE7FE
S11322C040255CE734273D4003D10C9B02951D60FB
S11322D004E0049D013E0C9976190E60211C0198BE
S11322E00122009CA047029807B0F0BD30B5C9B2E6
S11322F0031C1F2A31D944420323234005D0D21A98
S1132300C51801700130A842FBD1002905D00D0683
S11323100C042C430B02214319435409031C002CC5
S11323200ED0251C013D196059609960D96019616E
S113233059619961D9612033002DF3D16301C31828
S1132340D006400F07D0041C1D1C013C02C5002C04
S1132350FBD180001B18032422409D18002A03D0BF
S113236019700133AB42FBD130BD00B5C9B282183C
S1132370904205D0037801308B42F9D1013800E056
S1132380002000BD10B50023934203D0CC5CC4549C
S11323900133F9E710BD00B5431E01331A78002A52
S11323A0FBD1181A00BD000010B50B4C0B4B9C421E
S11323B002D001CC8047F9E7094C0A48844202D094
S11323C008CC9847F9E7084C08498C4202D004CC61
S11323D09047F9E710BDC046F0250000F025000045
S11323E0F0250000F0250000F0250000F025000095
S11323F010B5084C084B9C4202D004CC9047F9E736
S1132400064C0748844203D0043C21688847F8E717
S113241010BDC046F0250000F0250000F0250000A6
S1132420F025000000B588421FD0002A1DD00323E8
S1132430194207D1184205D19A4203D908C9043A6E
S113244008C0F2E70123194209D1184207D19A4280
S113245005D90B88023A038002310230E5E70B7894
S1132460013A037001310130DFE700BD38B50B4D8F
S1132470002D11D000242B191968002906D02B191E
S113248058689A68FFF7CEFF0C34F4E75A68002ABC
S1132490F5D198680028F2D138BDC046F025000077
S11324A0054B10B51C68002C04D0A06861688847EF
S11324B02468F8E710BDC046A8F0FF1F054B181CA0
S11324C0002805D0854681B00020C043009001B0AB
S11324D0F746704700300020F74670470D0A0000A9
S11324E04800000000010000000102000000030099
S11324F08080808080808080809090909090808088
S113250080808080808080808080808080808080C7
S11325101804040404040404040404040404040463
S1132520020202020202020202020404040404047B
S113253004434343434343414141414141414141B8
S113254041414141414141414141410404040404A8
S11325500423232323232321212121212121212178
S1132560212121212121212121212104040404806C
S11325700000000000000000000000000000000057
S11325800000000000000000000000000000000047
S11325900000000000000000000000000000000037
S11325A00000000000000000000000000000000027
S11325B00000000000000000000000000000000017
S11325C00000000000000000000000000000000007
S11325D000000000000000000000000000000000F7
S11325E000000000000000000000000000000000E7
S11325F0F025000000F0FF1F0000000000000000B4
S10B26000000000000000000CE
S9031209E1
